S01D0000626F6F746C6F616465722D756172742D786D6F64656D2E7333370C
S3150FE10800081000202F2CE10F2D2CE10FE52CE10F25
S3150FE108102D2CE10F2D2CE10F2D2CE10F2D2CE10FBE
S3150FE108202D2CE10F2D2CE10F4037E10F2D2CE10F90
S3150FE108302D2CE10F8837E10F2D2CE10F2D2CE10F38
S3150FE108402D2CE10F2D2CE10F2D2CE10F2D2CE10F8E
S3150FE108502D2CE10F2D2CE10F2D2CE10F2D2CE10F7E
S3150FE108602D2CE10F2D2CE10F2D2CE10F2D2CE10F6E
S3150FE108702D2CE10F2D2CE10F2D2CE10F2D2CE10F5E
S3150FE108802D2CE10F2D2CE10F2D2CE10F2D2CE10F4E
S3150FE108902D2CE10F2D2CE10F2D2CE10F2D2CE10F3E
S3150FE108A02D2CE10F2D2CE10F2D2CE10F2D2CE10F2E
S3150FE108B02D2CE10F2D2CE10F2D2CE10F2D2CE10F1E
S3150FE108C02D2CE10F2D2CE10F2D2CE10F2D2CE10F0E
S3150FE108D02D2CE10F2D2CE10F2D2CE10F2D2CE10FFE
S3150FE108E02D2CE10F2D2CE10F2D2CE10F2D2CE10FEE
S3150FE108F02D2CE10F2D2CE10F2D2CE10F10B5054C11
S3150FE10900237833B9044B13B10448AFF300800123C5
S3150FE10910237010BD68100020000000006039E10F60
S3150FE1092008B5034B1BB103490348AFF3008008BD7C
S3150FE10930000000006C1000206039E10F064B0748FC
S3150FE10940DA1C121AC11E22F00302994288BF002255
S3150FE10950034902F05FBE00BF6810002008100020B7
S3150FE109606C39E10F064B0748DA1C121AC11E22F049
S3150FE109700302994288BF0022002102F059BE00BF4F
S3150FE109803C13002068100020044B054A9A60D3F807
S3150FE10990882042F47002C3F88820704700ED00E02A
S3150FE109A00008E10F024A00231370024A13707047E1
S3150FE109B0B6100020B710002038B50378042B054692
S3150FE109C00C4650D008D8012B0AD0032B50D0182350
S3150FE109D0237040F603100DE0182B49D0432BF5E7B2
S3150FE109E0264B42781978D9B9012A04D015232370F9
S3150FE109F040F6041038BD1A70AB781A44FF2AF5D1C8
S3150FE10A0000228021E81C02F021FB95F88320C0F338
S3150FE10A100F239A4216D01523237040F60210E9E709
S3150FE10A20174B1B78934204D10623237040F6061029
S3150FE10A30E0E70133DBB29342DED01523237040F6B4
S3150FE10A400510D7E795F88430C0B2834204D0152359
S3150FE10A50237040F60110CDE7094B6A781A70062329
S3150FE10A6023700020C6E706230B7040F60710C1E797
S3150FE10A701823237040F60810BCE700BFB71000201B
S3150FE10A80B61000200149024800F03AB85836E10F96
S3150FE10A908410002010B592B018494722684602F03B
S3150FE10AA0B9FD00F0C1FAC0F30363092B8CBF3733ED
S3150FE10AB030330A228DF81430C0F30343B3FBF2F15E
S3150FE10AC002FB1133303300F00F008DF81730B0FB16
S3150FE10AD0F2F302FB130001F13004303003F1300180
S3150FE10AE08DF819108DF81A000122472168468DF805
S3150FE10AF0164000F0A3FC002012B010BD6836E10FDE
S3150FE10B002DE9F04F0024F9B094220646884653A802
S3150FE10B1021468DF80F4002F08BFD2146482205A8AC
S3150FE10B2002F086FD2146682217A802F081FD00F04A
S3150FE10B307FFBDFF80C93DFF80CA3DFF80CB33C2750
S3150FE10B4001254FF0FF34062DFDD8DFE815F009003A
S3150FE10B500D001E0041005B005101BD000425F2E7C7
S3150FE10B60FFF798FF0125EEE74FF47A7104A802F03B
S3150FE10B7092F940B99DF81030313BDBB2022B9ABFA7
S3150FE10B80AB4AD55C05463C27DDE701221121A94891
S3150FE10B9000F054FC28220021304602F049FD2023C3
S3150FE10BA017AA05A953A802F016FA0025FF237370B9
S3150FE10BB001210520758000F067FB00F08BFC18B171
S3150FE10BC00121284600F0FCFCFFF7ECFE0325BAE70E
S3150FE10BD0432002F03CF800214FF47A7000F054FB09
S3150FE10BE000F078FC18B900F073FB0028F8D000F09C
S3150FE10BF071FC0028B2D1013FA5D1182002F027F8E8
S3150FE10C000025A0E7002185220DF1C50002F010FDB8
S3150FE10C10002140F6B83000F037FB00F05BFC78B30B
S3150FE10C204FF47A7300930123194604AA0DF1C50017
S3150FE10C3000F074FC9DF8C530012B0DD140F6B832AA
S3150FE10C400092842104AA0DF1C60000F067FC049B13
S3150FE10C50842B044618D1C8B90DF10F010DF1C5006A
S3150FE10C60FFF7AAFE40F607139842044614D1B3786C
S3150FE10C700BB1F37813B918238DF80F3006251DE064
S3150FE10C8000F026FB0028C8D040F2047415208DF839
S3150FE10C900F0001F0DCFF56E780B99DF8C530012B57
S3150FE10CA00CD1CDF80080802332AA314653A800F04B
S3150FE10CB0CFFD044610B118238DF80F309DF80F00C4
S3150FE10CC0182808BF0625E4E70121002000F078FC8B
S3150FE10CD001210A2000F0D8FA9DF80F30062B4FF0CC
S3150FE10CE0010208D140F607139C4204D152481B2159
S3150FE10CF000F0A4FB84E71A21504600F09FFBA4F510
S3150FE10D001063B3F5E06F4FF0010222D24B48112188
S3150FE10D1000F094FB40F606139C4222DD9DF80F305E
S3150FE10D209F2B4FEA13108CBF3730303000F0BEFBEC
S3150FE10D309DF80F0000F00F0009288CBF37303030D7
S3150FE10D4000F0B4FB0D2000F0B1FB0A2000F0AEFB82
S3150FE10D5056E71021584600F071FB40F606139C4208
S3150FE10D600BDCB4F5106FD9DDA4F60213042B2BD8E7
S3150FE10D70DFE803F02C24282E3000A4F58053013B45
S3150FE10D80092BCBD8A4F58053013B092BC6D801A279
S3150FE10D9052F823F0E90DE10F1D0DE10F1D0DE10FE6
S3150FE10DA0ED0DE10FDD0DE10FE50DE10FE90DE10FC1
S3150FE10DB0E10DE10FD90DE10FE90DE10F21238DF8DA
S3150FE10DC00F30ABE72223FAE72323F8E72423F6E7ED
S3150FE10DD02523F4E72723F2E74123F0E74323EEE761
S3150FE10DE04423ECE74523EAE74F23E8E75023E6E719
S3150FE10DF0B378BBB1F378ABB133789B070DD5756893
S3150FE10E0000F012F9854204D9716A4FF4004000F0FF
S3150FE10E10FBF80122132148466AE740F2012000F070
S3150FE10E20D3F9F6E740F2032000F0CEF9E8E600BF8A
S3150FE10E30AF36E10F0A37E10FEF36E10F1B37E10F5F
S3150FE10E40B236E10FD536E10FC536E10F70B4084D75
S3150FE10E50D5F828582E698642034606D86C6913449D
S3150FE10E609C4202D370BC01F003BF70BC704700BF58
S3150FE10E700000E10F30B51446154A936A1D68154B0C
S3150FE10E809D4285B021D100F5004310F5004F039344
S3150FE10E901BD2039BB3F5002F17D2039BC3F5002398
S3150FE10EA0A34212D350B9D2F828385A69B2F5004F96
S3150FE10EB004D91869019101F0A4FF0199039822461B
S3150FE10EC005B0BDE8304001F0D3BE05B030BD00BF7F
S3150FE10ED00000E10FAD1007B0F0B5421ED11C85B091
S3150FE10EE0034619D80D4C6E4604F110072068616868
S3150FE10EF0354603C50834BC422E46F7D10DF10F0135
S3150FE10F000F3311F8010912F8014F844204D19A42C5
S3150FE10F10F7D1012005B0F0BD0020FBE72C37E10F3B
S3150FE10F20F0B5036803F16043B3F5803FA1B0044622
S3150FE10F3062D8334A4368D2F8282816699E425BD8AD
S3150FE10F40B3F5002F58D8456B06F14003AB4255D8A0
S3150FE10F50B5F5002F52D82846FFF7BEFF00284DD032
S3150FE10F60284601F0A7FE80B16F6977B1022F0ED146
S3150FE10F70AB69C4F1040119444FF0FF32204600F08A
S3150FE10F8027FF204BC31A5842584121B0F0BD40F21A
S3150FE10F90046328460593FFF79FFF0028F5D02846FF
S3150FE10FA001F088FE0028F0D0012F25D1AD69AE42C0
S3150FE10FB022D8AC4220D8B5F5002F1DD806A802F0ED
S3150FE10FC083F82A1B214606A802F088F806A802F044
S3150FE10FD087F800F057FF039000F058FF039B00904E
S3150FE10FE005F12002294606A800F00CFF05900598A9
S3150FE10FF0B0FA80F04009C8E70020C6E70120C4E750
S3150FE110000000E10FE320BBDE08B54FF0FF3200F041
S3150FE11010DFFE044B984203D140F2092000F0D4F8E9
S3150FE11020002008BDE320BBDE024BD3F828389868D1
S3150FE11030704700BF0000E10F284B13B501225A6438
S3150FE110401A6842F480721A6001A801F0ADFD9DF8AD
S3150FE110500530012B03D89DF80430022B0DD9204B17
S3150FE110604FF41872C3F88C221E4AC3F890221E4A17
S3150FE11070C3F8F0221D4AC3F8F8221D4BD3F8A42179
S3150FE1108042F4F842C3F8A4215B6801F01DFE00F0BB
S3150FE1109079F801F0D7FD01F0D7FD18B14FF40170E2
S3150FE110A000F092F8FFF7EEFC044601F0CFFD1CB11C
S3150FE110B040F203739C4203D140F2012000F084F821
S3150FE110C0A4F20574012C94BF40F203204FF4017092
S3150FE110D000F07AF8002002B010BD00BF00000E400C
S3150FE110E000400E409A6F0500180100040084320893
S3150FE110F000300E4013B5214B01248DF806408DF8D3
S3150FE1110007405B685B050BD500F07CF8A0F2022087
S3150FE1111080B2072804D804FA00F010F0C90F02D103
S3150FE1112000F0B2FA20B100238DF806308DF80730C2
S3150FE1113000246368013307D14FF4027000F038F8E9
S3150FE111408DF806408DF807409DF807305BB100201A
S3150FE11150FFF7E6FE8DF806009DF806301BB94FF452
S3150FE11160027000F025F89DF8063023B1044B0020FC
S3150FE11170986001F0ADFD02B010BD00BF00500E400A
S3150FE1118000ED00E0024B4CF23C325A80704700BF53
S3150FE1119000000020054B5B8823F00F034AF6C030B1
S3150FE111A09BB21B1A58425841704700BF00000020FE
S3150FE111B0044A08B51080FFF7EDFF10B94FF20F03A0
S3150FE111C0538008BD0000002008B5FFF7F1FF0A4A7A
S3150FE111D0136823F4E06343F400731360BFF34F8F97
S3150FE111E00649074BCA6802F4E0621343CB60BFF3CB
S3150FE111F04F8F00BFFDE700BF00500E4000ED00E04E
S3150FE112000400FA05094B5A884FF20F018A4201D1C0
S3150FE11210188870473AB91B88012B40F2022018BF94
S3150FE112204FF4007070474FF40070704700000020D4
S3150FE112301FB5124B1A6842F480121A60D3F8C02018
S3150FE1124042F00102C3F8C02000F0DAF94FF47A2335
S3150FE11250B0FBF3F00A4B0E2218600021684602F04C
S3150FE11260E7F901238DF8003006480A2369468DF820
S3150FE11270023002F07BF805B05DF804FB00400E404A
S3150FE11280AC1000200080014030B50D4D0D4A2D68A0
S3150FE11290536A15FB00F09CB210FA83F00A4B80B249
S3150FE112A01880A042094B2CBF002401241C7011B1F8
S3150FE112B0536A8342FCD101235361936130BD00BF71
S3150FE112C0AC10002000800140B4100020B8100020BF
S3150FE112D0094B0A4AD868127800F001000AB108B939
S3150FE112E0704738B9586A064B1B88984234BF0020BD
S3150FE112F0012070470120704700800140B81000209F
S3150FE11300B410002070B5394E394A3368394D3A4831
S3150FE1131003F1340191601C3301216B606B6201F0C3
S3150FE1132003FB3648012101F0FFFA01214FF4AA40F0
S3150FE1133001F0FAFA7068012101F0F6FA33683049E3
S3150FE1134040F6AA620024DA6041F205021C605C668F
S3150FE113505A609C605C61DC6499645C679C67DC67DE
S3150FE113605A601A681A6000F04BF9264A00F5E14314
S3150FE113705B014FF4E110B3FBF0F3203B02EAC30349
S3150FE1138032682146536120460123042201F00CFB0A
S3150FE1139001231A461946204601F006FB336803225C
S3150FE113A005219C675A67D960174B4FF0E0611960C9
S3150FE113B04FF440211C62DC625C63DC66C3F880108B
S3150FE113C00131C3F88840C3F88440C3F89850C3F895
S3150FE113D0B0100E49C3F8B840C3F8B4408A6201228F
S3150FE113E0DA6303F1C06302229A6070BD58100020E0
S3150FE113F048100020081000204041050000350A0082
S3150FE11400F9FF0100F8FF7F0000200E4000200E4497
S3150FE11410084B986A10F0020006D003F180630222AE
S3150FE114201A629A62012070471B6A9B07FBD4024B33
S3150FE114300222F6E700200E4000200E447F2938B540
S3150FE114400446154624D8FFF7E3FF20B3134B204696
S3150FE11450621890420DD1124B1A88013961F30E12BF
S3150FE114601A80104AC2F8C8300223D36335B9002077
S3150FE1147038BD10F8014B03F8014BEAE7FFF7C8FF58
S3150FE114800028FBD0084B1A6813699B06FCD5EEE7DB
S3150FE1149041F20310ECE741F20620E9E7B912002029
S3150FE114A04810002000200E405810002008B50146D4
S3150FE114B0FFF7AEFF0028FBD0054B1B681A695006F4
S3150FE114C0FCD559631A699206FCD5002008BD00BF09
S3150FE114D0581000200E4BD3F8940040F201139842B6
S3150FE114E00FD040F2022398420DD00A4BC01A0A4B95
S3150FE114F01B6883420AD02ABFC3F50073C01AC0180E
S3150FE1150070470020F3E74FF48070F0E70020704753
S3150FE1151000200E40B9100020B01000202DE9F8434D
S3150FE11520089F04460D461646F3B9FFF7D3FF214A46
S3150FE11530DFF888E01368204FA84228BF284604EB5E
S3150FE11540000C00214FF001084FF0020964451DD14F
S3150FE1155001B1136006B1306041F20423A84234BFF2
S3150FE1156018460020BDE8F8832FB1FFF761FE002191
S3150FE115703846FFF789FEFFF7ADFFA842D5D2002F18
S3150FE11580F9D0FFF7A5FE0028F5D0CEE71EF8031038
S3150FE1159004F8011B0133B3F5007F04D1C7F80890B6
S3150FE115A000230121D2E7B3F5807F08BFC7F8088092
S3150FE115B0F7E700BFB010002000200E46B91000205B
S3150FE115C010B10B4B02221A6279B1094A094901237B
S3150FE115D01362936202F17C420020C2F89810064929
S3150FE115E00860D363054B02229A600020704700BF63
S3150FE115F000200E4408100020B010002000200E46F7
S3150FE1160030B51B4B87B001AA03F11005186859686D
S3150FE11610144603C40833AB422246F7D11B78154A69
S3150FE116202370D2F8943003F00703022B1BD0136912
S3150FE11630C3F30443102B18D818336B440E4813F831
S3150FE11640143C0E4943438B4203D11269C2F3416203
S3150FE11650D340084AD2F80001C0F304200130B3FBAE
S3150FE11660F0F007B030BD064BF3E7064BF1E700BFED
S3150FE11670D837E10F00400E4040420F0000093D0010
S3150FE1168000F04902C0EA21011C4AD2F8B03013B585
S3150FE1169043F008030521C2F8B030084601230422BE
S3150FE116A001F082F900230093009B632B20DD0521D6
S3150FE116B001230222084601F077F900230193019BEA
S3150FE116C0B3F5FA7F17DB0E4B0521D3F894410846A4
S3150FE116D00123002201F068F9084AD2F8B030601E02
S3150FE116E023F0080318BF0120C2F8B03002B010BDD5
S3150FE116F0009B0133D7E7019B0133DFE700400E4043
S3150FE1170000201442074B30B500220C2404FB02F1F2
S3150FE11710CD58854201D1581830BD01320A2AF5D18B
S3150FE117200020F9E7EC37E10F7FB50023CDE9003370
S3150FE11730082315460DEB0302044601F0D7FB41F2F0
S3150FE1174003039842064626D194F8433063B1082243
S3150FE117500DEB0201E06C01F0C1FC08230DEB030276
S3150FE11760A06C114601F09FFC039A6A6094F843203E
S3150FE11770029B2B605AB9094A934208D0084A934211
S3150FE1178005D00822E06C0DEB020101F0A7FC6B68B6
S3150FE11790236500236365304604B070BDF70A0AF787
S3150FE117A0FC0404FC2DE9F743044658680E46174638
S3150FE117B09846002843D08B0744D1244B206ED3F8AB
S3150FE117C028381B6902EB000C1D1D65451CD81C331F
S3150FE117D0984219D28542294638BF0146081AC5F102
S3150FE117E0680506EB000968189C4594BFC1EB0C022E
S3150FE117F0C1EB030220444946019201F00BFF019A26
S3150FE11800FF21484601F014FF226E48F204039A4283
S3150FE118100BD8B81848F20701884206D99B1AF25835
S3150FE11820C4F880204FF0FF32F250206E3A46D8E9E5
S3150FE1183000353146A847226E3A442266002003B0AE
S3150FE11840BDE8F08341F20200F9E700BF0000E10FC6
S3150FE118502DE9F04FA5B0CDE9112398462E9F002330
S3150FE1186004460E461393139A424501D30020CEE068
S3150FE1187094F84630102BF7D8DFE813F06400B10087
S3150FE11880AB004E0035002A007F01350077013500A8
S3150FE1189077013202A30211000F01FD01A1024FF000
S3150FE118A00009636D0F2B00F298800125102314AA0E
S3150FE118B0CDF80490009511A9204601F017FB099088
S3150FE118C0099A41F203039A4200F0D980099B45E058
S3150FE118D00125D4E91432934200F2E98084F84650A7
S3150FE118E041F203033AE04FF00109D4E91435AB4273
S3150FE118F073D95B1BDDE91252AD1A94F84020032B25
S3150FE11900154440F23E81032D00F23E8111A9204696
S3150FE1191001F0CBFA002321E0A84D636D072BDFD849
S3150FE119200123CDE9003314AA082311A9204601F0BA
S3150FE11930DDFA0B900B9A41F203039A4200F0DC8039
S3150FE119400B9B0BE014AA11A92046FFF7EDFE0690BB
S3150FE11950069B41F20302934208D0069B0593059A33
S3150FE1196041F203039A423FF47EAF4FE0159A2265A7
S3150FE11970002214996265924A914240F0CF80022289
S3150FE1198084F84620EAE70123009314AA0823019578
S3150FE1199011A9204601F0AAFA0790079A41F203032B
S3150FE119A09A4201D0079BD9E7149B03F07F43B3F12A
S3150FE119B0407F05D0102384F8463041F20903CDE785
S3150FE119C0159BD90706D594F8423043F0010384F805
S3150FE119D042300025636D072BD5D90123CAE014AA3E
S3150FE119E011A92046FFF7A0FE0890089D41F20303D7
S3150FE119F09D420FD0089D0595059A41F203039A4240
S3150FE11A003FF431AF059B0BB10023F370059825B079
S3150FE11A10BDE8F08F1498FFF775FE28B9102384F807
S3150FE11A20463041F20805E6E7437994F890209A4269
S3150FE11A3005D9102384F8463041F20E05DBE702683B
S3150FE11A4060498A4205D00289D20748BF013384F83B
S3150FE11A50903094F84230D9070DD5028994F8433086
S3150FE11A60920706D53BB1102384F8463041F20105C2
S3150FE11A70C1E7002BF7D0037984F84630BBE7D4F8FA
S3150FE11A8048B000F007FA8023CDE9000315AA2B46EB
S3150FE11A900221584601F0E7FA03E7226DA265012319
S3150FE11AA0002284F84330E26584F84630DBE614AA77
S3150FE11AB0CDE9005511A9204601F018FA0A900A9AC4
S3150FE11AC041F203039A4201D00A9B47E70DF1500C0D
S3150FE11AD006F108030DF1680E624603CA72451860F6
S3150FE11AE05960944603F10803F6D11068186033780C
S3150FE11AF043F001033370ECE633783348159A43F03C
S3150FE11B0002033370149B7360236D083B7362AB6AF8
S3150FE11B101968814205D1DB68934205D0102384F819
S3150FE11B20463041F2010319E7042384F8463094F86D
S3150FE11B30453043F0010384F8453000236366ECE654
S3150FE11B40042314AACDE9005511A9204601F0CEF9D7
S3150FE11B500C900C9A41F203039A4201D00C9BFDE6DD
S3150FE11B60236D042B02D9149B23660125636D032B89
S3150FE11B70E6D9092384F84630B2E6002363660723E4
S3150FE11B8092E7AB423FF6C2AE402B28BF40239D42C0
S3150FE11B9028BF1D46032D88BF25F003052B4614AA42
S3150FE11BA0CDE9009911A9204601F0A0F90D900D9A02
S3150FE11BB041F203039A4209D00D9BCFE60000E10FF4
S3150FE11BC0EB17A603F90707F9AD1007B094F846A08E
S3150FE11BD0BAF1070F04D1D7F808B0BBF1000F1BD14B
S3150FE11BE0042DC5F1040B14AB88BF4FF0000B5A4619
S3150FE11BF0FF21581901F01CFDBAF1090FAB4414D1BD
S3150FE11C003B465A4614A92046FFF7CCFD0D900D9B96
S3150FE11C10002B3FF46AAECFE72A463B68606E14A904
S3150FE11C20D847626E2A4462665FE6BAF1040F7FF423
S3150FE11C305CAE737899077FF558AEFB68002B3FF4DE
S3150FE11C4054AE626E042A0BD80BEB0203062B07D9AF
S3150FE11C5015AB9B1A1A68C4F884204FF0FF321A604D
S3150FE11C60FD683B68606E5A4614A9A847626E0BEB96
S3150FE11C700205656639E694F84450002D7FF4ADAE62
S3150FE11C80402314AACDE9005511A9204601F02EF9FA
S3150FE11C900E900E9A41F203039A4201D00E9B5DE636
S3150FE11CA0E06C01F01DFAD4F84C9000F0EBF80390DC
S3150FE11CB000F0ECF8039B00901CAA14A9484600F02B
S3150FE11CC0A1F80E900E9B33B11023F57084F84630D0
S3150FE11CD041F2060342E60123F37084F844307CE6D1
S3150FE11CE00023CDE9003314AA042311A9204601F0FC
S3150FE11CF0FDF80F900F9A41F203039A4202D00F9B20
S3150FE11D00059383E6D4F888202F4B9A4205D010230A
S3150FE11D1084F8463041F20503F2E70123F37094F8B4
S3150FE11D204530DA0707D5FD682DB104223B6804F18A
S3150FE11D3084011046A84794F845309B0707D5FD68FF
S3150FE11D402DB104223B6804F184011046A847236EA6
S3150FE11D5073B37D6865B34FF0FF3304F1800104225D
S3150FE11D6010A81093039101F045FC28B13B68039944
S3150FE11D70042248F20400A84704F1680904224946FF
S3150FE11D8010A801F037FC98B1104BD3F82838D3F8E7
S3150FE11D9010801422D7E9003504F16C0108F108002F
S3150FE11DA0A8470422D7E90035494608EB0200A847C0
S3150FE11DB00123B3700C2384F846300023A0E70023F8
S3150FE11DC0F37041F2070022E6E320BBDE0000E10FEC
S3150FE11DD010B50A4CD4F8B03043F04003C4F8B03034
S3150FE11DE0074B01241C6001449A605C60884201D173
S3150FE11DF0D86910BD10F8012B9A61F7E700400E4044
S3150FE11E0000C001402DE9F041A2B00E46DDF8A080F9
S3150FE11E1015461F46044670B369B362B35BB3B8F1B7
S3150FE11E20000F28D01548012100F07EFD4022002148
S3150FE11E3002A801F0FDFB394602A801F064F912AFE1
S3150FE11E4041460AA801F05FF940220021384601F028
S3150FE11E50EFFB3146384601F056F929461AA801F04B
S3150FE11E6052F90748009702AB2022214600F0C8FA43
S3150FE11E7022B0BDE8F08140F20160F9E700050A0002
S3150FE11E8000000F40004870474A43E00F0048704793
S3150FE11E906A43E00F004870478642E00F2DE9F041B3
S3150FE11EA004461D460F46904600211C22181D01F0DF
S3150FE11EB0BFFB01232B6001F054F94146064604F5B9
S3150FE11EC0807001F0BBF9394604F5827004F5847729
S3150FE11ED001F0B4F92946384601F0B0F9304601F080
S3150FE11EE044F90D4E0D4B0E4A0E490F4823656369B2
S3150FE11EF0DB010BD501F035F929460446384601F0E9
S3150FE11F00A5F92046BDE8F04101F02FB922656165DB
S3150FE11F10A065E665EBE700BF393801003939840181
S3150FE11F20D02484FC1C82FED88B1C81A02DE9F04FB6
S3150FE11F302DED028B8BB004469A460D46164601F0FF
S3150FE11F4010F904F5827705F14002114604F5867B17
S3150FE11F5080463846019201F071F93146584601F053
S3150FE11F606DF904F58873184606F12001009301F027
S3150FE11F7065F9404601F0F9F8434921654349616541
S3150FE11F8001264349A165E66501F0EBF8294681464D
S3150FE11F90384601F053F904F5847805F12003194623
S3150FE11FA0404608EE103A01F049F9019A009B1146B5
S3150FE11FB0184601F043F9484601F0D7F8354B23654A
S3150FE11FC0354B6365A66501F0CCF804F58079009091
S3150FE11FD00AF14001484601F039F902A9404601F0FC
S3150FE11FE035F9009B184601F0C0F801F0BAF8294619
S3150FE11FF00090584601F022F9009B184601F0B5F81A
S3150FE12000264B2365264B63656FF42672A3F5FE23F4
S3150FE120101344A365E66501F0A4F818EE101A054618
S3150FE12020384601F00BF9284601F09FF81D4B236561
S3150FE120301D4B6365A66501F094F85146054640468A
S3150FE1204001F004F9284601F090F801F08AF802A9A7
S3150FE120500546384601F0F2F8284601F086F8134BAB
S3150FE120602365134B6365A66501F07BF80AF1200141
S3150FE120700446484601F0EAF8204601F076F80BB03F
S3150FE12080BDEC028BBDE8F08F8AD11C81D91C83D1BF
S3150FE120901C81E11CD01482CB1481E11C8CE11C81E3
S3150FE120A01C84D91CE014D8141482E11C84D3148245
S3150FE120B0D11CE0142DE9F041044690B00F46244EB1
S3150FE120C00521904601F02BF9002323602363636317
S3150FE120D00FCE08AD0FC596E80F0085E80F0008AAE9
S3150FE120E06B4607F140012046FFF7D8FE01F039F8BC
S3150FE120F004F586760546694604F5827001F09EF889
S3150FE121003946304601F09AF807F1200104F5887057
S3150FE1211001F094F8284601F028F80E4B23650E4B93
S3150FE1212063650E4BA3650123E36501F01AF808F128
S3150FE121302001054604F5807001F088F841463046E6
S3150FE1214001F084F8284601F010F810B0BDE8F081EF
S3150FE121507038E10F8AD11C81D91C83D11C81E11C16
S3150FE121602DE9F04FA5B01D460446CDE9001205A8AD
S3150FE121701C22002101F05CFA4FF001082022002118
S3150FE12180284605F12007CDF8108005F1400A01F048
S3150FE121904FFA20220021384601F04AFA2022002187
S3150FE121A0504601F045FA0521204601F0B8F8002323
S3150FE121B02360FF26236363637211019906F01F0300
S3150FE121C051F8221008FA03F30B42324606F1FF36B5
S3150FE121D001D0164601E0002EEED100F0C2FF04F564
S3150FE121E08273394680461846029301F027F8404636
S3150FE121F000F0BBFF764B774A23656265764AA265A7
S3150FE1220000F0AFFF04F5807914A98046484601F046
S3150FE122101DF8404600F0A9FF00F0A3FF29468046CE
S3150FE12220484601F00BF8404600F09FFF6B4A6C4BB6
S3150FE1223022654FF486726365A26500F092FF04F59D
S3150FE12240867883460CA9404601F000F81CA948465A
S3150FE1225000F0FCFF584600F088FF00F082FF029B7A
S3150FE12260039351468346184600F0E8FF584600F0BF
S3150FE122707CFF5C4B23650123636500F072FF04F578
S3150FE12280847B29460290584600F0D8FF029A104601
S3150FE1229000F06BFF544A226502F1D94202F5DE12D4
S3150FE122A002F595626265A2F586120123A2F2BA42A0
S3150FE122B0A265E36500F055FF1CA90290584600F0B0
S3150FE122C0BDFF0CA9404600F0B9FF029A104600F097
S3150FE122D04CFF464A2265464A6265464AA26500F0C8
S3150FE122E040FF2946029004F5887000F0AFFF029A8D
S3150FE122F0104600F03AFF00F034FF039B0290394697
S3150FE12300184600F09BFF5846514600F097FF14A977
S3150FE12310404600F093FF029A104600F026FF364B37
S3150FE123202365364B636500F01CFF514683464846ED
S3150FE1233000F08CFF3946404600F088FF584600F022
S3150FE1234014FF012106F01F0301FA03F3721101993C
S3150FE1235051F82220134211D0284600F0C4FE38B1BD
S3150FE12360384600F0C0FE18B1504600F0BCFE58B931
S3150FE12370009A2B4629462046FFF7D8FD013EBFF4CA
S3150FE123802CAF25B0BDE8F08F009BAC4603F1200ED4
S3150FE1239018685968624603C2083373459446F7D104
S3150FE123A0BC4603F1200E18685968624603C208332A
S3150FE123B073459446F7D10DF1100EBEE80F0005F106
S3150FE123C0400CACE80F009EE80F008CE80F00D5E754
S3150FE123D08AD11C81821CC00C0C0C0100C00C0C8331
S3150FE123E0D91C83D88AD11C83DA0C81148CE11CD0D9
S3150FE123F01484E31482D11C01D81483D11CC00C01BF
S3150FE124002DE9F04FBBB00D460446002193460AA8CD
S3150FE124106022449E994601F00BF96022002122A821
S3150FE1242001F006F9002D00F01C81B9F1000F00F063
S3150FE124301881002E00F01581BBF1000F40F31181D9
S3150FE124400023236023636363636843F010036360D0
S3150FE124500C21204600F063FF6368DFF824C223F402
S3150FE12460406343F400636360636823F4407343F4AA
S3150FE1247000736360BCE80F002AAF0FC79CE80F003B
S3150FE1248087E80F0000F06DFE04F584788246314649
S3150FE12490404604F5867700F0D1FE2AA9384600F0CA
S3150FE124A0CDFE504600F061FE6F4A2265012363655A
S3150FE124B06369DA0104D440F202603BB0BDE8F08F04
S3150FE124C0311F082351F8040F002800F0C28000F0F5
S3150FE124D048FE06F1200A01905146404600F0AEFE55
S3150FE124E02AA9384600F0AAFE019B184600F03DFEE8
S3150FE124F001235D4A226563656369DB01DBD55246DC
S3150FE12500082352F8041B002900F0A780202200219E
S3150FE1251032A801F08DF8BBF1200FA8BF4FF0200BC9
S3150FE125200BF1FF32013D22F0030303F594736B4484
S3150FE1253002F0030C15F8010F53F8601C4FEACC0CAF
S3150FE1254000FA0CF00843013A43F8600CEBD200F0C5
S3150FE1255008FE32A90546404600F070FE284600F017
S3150FE1256004FE424B236500F0FCFD04F5807B054636
S3150FE1257032A9584600F06AFE284600F0F6FD2AAA6F
S3150FE1258002AB51462046FFF789FC00F0EAFD04F560
S3150FE12590887A054602A904F5827000F04FFE32A94A
S3150FE125A0504600F04BFE3146384600F047FE2846CE
S3150FE125B000F0DBFD2E4B236503F1FA43A3F5006330
S3150FE125C0636500F0CEFD32A90546504600F03EFEAA
S3150FE125D002A9584600F03AFE284600F0C6FD254905
S3150FE125E00AAB32AA2046FFF7BBFD22AB02AA494648
S3150FE125F02046FFF7B5FD0AAA11462046FFF75AFD19
S3150FE1260022AB19460AAA2046FFF790FC22AA1146E9
S3150FE126102046FFF74FFD00F0A4FD0C2105462046AD
S3150FE1262000F07DFE22A9404600F008FE314638460D
S3150FE1263000F004FE284600F098FD0F4B23650F4B83
S3150FE126406365636913F0807F40F2046018BF002071
S3150FE1265033E7013B7FF436AF2DE7013B7FF451AF13
S3150FE1266029E740F2016028E73035DA1030D00C0166
S3150FE1267030E11C84B038E10F3035DA143938010016
S3150FE126809038E10F2DE9F34799460A9B0C461968F5
S3150FE126903F290546164642D85A68002A41D0224AB2
S3150FE126A0002E14BFB046904601F03F07091928BF27
S3150FE126B05A68196024BF01325A60AFB1C7F1400AB7
S3150FE126C0A24521D82946524609EB070000F0A2FFA1
S3150FE126D001230093414633464A46002000F086F82F
S3150FE126E0403C55443C44B0463F2C0CD9A3090093DA
S3150FE126F02A4633464146002000F078F824F03F039E
S3150FE127001D4404F03F0400272CB12246294609EB6C
S3150FE12710070000F07FFF002002B0BDE8F08790468A
S3150FE12720C2E7DFF80480BFE7F038E10F30B40546C2
S3150FE12730084611461A46DDE9023425B931B102944C
S3150FE1274030BCFFF79FBF024830BC70470846FBE736
S3150FE1275080AFFFFF2DE9F041146886B01E46E30016
S3150FE127608DF80F30630917468DF80E305268630BFB
S3150FE127708DF80D30630D8DF80C30D30003EB5473E8
S3150FE127808DF80B3004F03F045309372C8DF80A30DE
S3150FE127904FEA52334FEA525205468DF80820CDE9FA
S3150FE127A0001794BFC4F13802C4F1780288468DF858
S3150FE127B009300D4903460020FFF7B8FF08214346CC
S3150FE127C000972A460DEB0100FFF75CFF284605F15E
S3150FE127D0200350F8042B46F8042B9842F9D1002038
S3150FE127E006B0BDE8F08100BF1039E10F2DE9F04FDA
S3150FE127F099B00546884691461F4600F0F3F904461F
S3150FE12800002D7DD1042303604560C56443686A46A4
S3150FE1281023F44063436008F11C010563A8F1040347
S3150FE128204563904653F8040F00BA8B4242F8040B06
S3150FE12830F8D100F096FC4146054604F5827000F0AA
S3150FE12840FDFC284600F091FC2F4B23654FF0000A63
S3150FE1285009F00306229A924527D1BB0704F5807644
S3150FE1286043D000F07EFC41460546304600F0EEFCD3
S3150FE12870284600F07AFC08AD3A46434603CBAB4215
S3150FE1288010605160984602F10802F6D1204600F039
S3150FE12890B3F93B1F1C3753F8042F12BABB421A6028
S3150FE128A0F9D1002019B0BDE8F08F09EB8A1566B1B1
S3150FE128B00DF1200C05F1400E28686968624603C2E6
S3150FE128C0083575459446F7D108AD00F04AFC29461F
S3150FE128D0834604F5D27000F0C1FC584600F045FC82
S3150FE128E00A4B23650AF1010AB4E700F03AFC3946CF
S3150FE128F00546304600F0AAFC284600F036FCC5E74F
S3150FE129006FF07100CEE700BF888AC801070D81011C
S3150FE12910044BD3F84421D20703D4D3F84021104214
S3150FE12920FBD1704700400E4038B5C0F30323013B9E
S3150FE12930092B16D8DFE803F02616151505191C1510
S3150FE129401F23124C0023C0F3043513B11846FFF7CA
S3150FE12950DFFF04F1424404F5801405EBC404A4003F
S3150FE12960216038BD0A4C0023EDE70A4C0123EAE763
S3150FE12970094C1023E7E7094C4FF48033E3E7084CA2
S3150FE129800023E0E7074C0023DDE700BFB0400E4030
S3150FE12990C0400E40E0400E40E8400E40F0400E4091
S3150FE129A050410E4000400E4000EB4000F8B50D4699
S3150FE129B01F46040116463AB1164801238B402044BF
S3150FE129C0CFB100F1C0600360072D4FF00F0115D8AD
S3150FE129D0AB00114806FA03F29940204400F0B5FC2A
S3150FE129E046B90C4A012101FA05F5224477B102F104
S3150FE129F0C0621560F8BD00F18060E4E7A5F1080358
S3150FE12A009B00064806FA03F29940E6E702F1806277
S3150FE12A10EFE700BF0CA0004004A0004008A0004073
S3150FE12A20234B41F671311A6C10B5196421494C6883
S3150FE12A304968996841F00101996001211861D960EE
S3150FE12A40D9694C0792B209D5996821F001019960CC
S3150FE12A500AB100221A644FF0FF3026E00221D96055
S3150FE12A601549D869C00700D569B9D86910F00200D0
S3150FE12A700BD0996821F0010199600AB100221A641D
S3150FE12A806FF0010011E00139EBE741B9986820F0E9
S3150FE12A900100986002B119646FF0020005E09968D0
S3150FE12AA021F0010199600AB1186410BD1046FCE7E7
S3150FE12AB000000E4000300E40809698002DE9F04F51
S3150FE12AC0054602F16040B0F5803F03D94FF0FF3084
S3150FE12AD0BDE8F08FDFF8C4C02E4CDFF8C490DFF805
S3150FE12AE0C480302606FB05C64FF44010C6F88000B9
S3150FE12AF00020C6F88400C6F88800C6F8980041F6AB
S3150FE12B007130D4F840A02064A0684FF0010E40F078
S3150FE12B100100A0600EFA05F55BB90422E260A26836
S3150FE12B2022F00102A2601FFA8AF202B1236418466B
S3150FE12B30CEE701F50060216100EA0900C4F80CE077
S3150FE12B40401AD4F81CB0984228BF18461BF0040F60
S3150FE12B504FEA9007BAD1013F3F0147F06057C6F8F8
S3150FE12B608C700D4FC6F89020C6F89470DCF8207083
S3150FE12B702F43CCF820701027E760DCF828703D4230
S3150FE12B80FBD0C8F828500144C8F8205002441B1A5C
S3150FE12B90C2E700BF00000E4018000E4000200E40B5
S3150FE12BA000F8FFFF00200E440D4AD2F8E430D2F8C8
S3150FE12BB0E0109B0003F03C03C1F381110B438370DB
S3150FE12BC0D2F8E03003F03F034370D2F8E830D2F8A1
S3150FE12BD0EC2003F0F003C2F30312134303707047C3
S3150FE12BE000FF0FE0024B03480122C3F800267047AE
S3150FE12BF00010C84300000F40094B98420ED003F571
S3150FE12C008063984209D10122064B03EBC2035A684E
S3150FE12C10054B13449B0000221A6070470022F3E72D
S3150FE12C2000000F405039E10F8005F210FEE708B5BD
S3150FE12C30FDF7AAFEFEF75EFAFDF780FEFDF792FEBF
S3150FE12C40FEF7FAF900F012B8FDF724BF704710B599
S3150FE12C500446FEF72BFC182C07D12046FEF726FC7F
S3150FE12C602046BDE81040FEF721BC10BDFEF74ABB7A
S3150FE12C70C0F30A032DE9F04105460F4616460BB997
S3150FE12C8000F0BFF805F5006424F4FF6424F00704AF
S3150FE12C9005EB0608A04507D83246394628460223F2
S3150FE12CA0BDE8F04100F0B4B8204600F0AAF804F50B
S3150FE12CB00064EFE7036913F0FE0F0CBF012000205C
S3150FE12CC070474FF40040704700207047002070476F
S3150FE12CD000231846016881F3088881F30988406863
S3150FE12CE08746FEE74FF40170FEF76EBAB1F5BE7F88
S3150FE12CF010B504460FD34FF4BE72002100F098FCD5
S3150FE12D0004F5827204F1BC0104F128000023BDE849
S3150FE12D10104000F060B940F2052010BD13B504462E
S3150FE12D20009101462830FEF793FDC4F8780118B1FA
S3150FE12D3041F20703984209D1A3784BB1E27840F209
S3150FE12D40032040F20223002A08BF184602B010BD45
S3150FE12D5040F20120FAE72DE9F04387B00DF10809BA
S3150FE12D600446DDF838800E46174600211022484604
S3150FE12D701D4600F05DFC0021C8F800101C22284614
S3150FE12D8000F056FC32463B46CDF80090214604F161
S3150FE12D902800FEF75DFD23789A0744BF6268C8F8FD
S3150FE12DA00020DB0709D504F1080304F1240253F8E7
S3150FE12DB0041B45F8041B9342F9D12378002B40F20B
S3150FE12DC0064018BF002007B0BDE8F0834FF4BE7090
S3150FE12DD0704713B504460B461046A20753BF6FEA79
S3150FE12DE003434FF6FF7242EA03436FEA134301933C
S3150FE12DF0042324F003010DEB0302FFF75FFE02B09C
S3150FE12E0010BD08B5FFF70CFEB0FA80F0400908BD1A
S3150FE12E10072B2DE9F04105460E4614461F4602D90A
S3150FE12E200020BDE8F08101214FF4AA40FFF77CFDB8
S3150FE12E300CB90120F5E744EA0503DA07F0D4AB074D
S3150FE12E4026D531883A462846FFF7C3FF0028E7D152
S3150FE12E50023C032C05F1020506F102060DD924F019
S3150FE12E6003084346324629463846FFF727FE002830
S3150FE12E70D6D146444544A4EB0804002CD9D0318879
S3150FE12E803A462846FFF7A5FFB0FA80F04009C8E7B2
S3150FE12E90032CE4D8F3E707B5012300910022194685
S3150FE12EA0FEF73CFB03B05DF804FB70B5D1E90152C7
S3150FE12EB0AA4205D290F840302B449B1A402B10D9E9
S3150FE12EC0002012E00A6890F84040D65C90F8412065
S3150FE12ED0224402F03F020133013486548B6080F8BD
S3150FE12EE040408B689D42EDD8012070BD2DE9F84336
S3150FE12EF01D461746D1E901329B1A90F840209DF8FD
S3150FE12F0020909DF8248013449D4204460E4656D9DF
S3150FE12F10FFF7CBFF00285CD1102384F8463041F24E
S3150FE12F200200BDE8F88394F84120A25CFA5494F8C4
S3150FE12F304120013202F03F0284F8412094F840200B
S3150FE12F40013A84F84020013394F840200AB19D42BA
S3150FE12F50E9D1D6E90121914201D29D4231D89D4273
S3150FE12F60DAD1D4F8882029463846FEF731FFC4F87E
S3150FE12F708800B9F1000F04D0E06C2A46394600F01B
S3150FE12F80ADF8B8F1000F08D094F843308BB1A06CCF
S3150FE12F902B463A46394600F086F894F8433043B16A
S3150FE12FA0E36DA26D2B449342E36524BF002384F8BE
S3150FE12FB04330636D2B44636541F20300B1E70023B0
S3150FE12FC0C2E73268525CFA54B2680132B260013339
S3150FE12FD0BFE70020A5E72DE9F04103F02003002527
S3150FE12FE004464FF0FF38C0E918550F461646A0F8CC
S3150FE12FF0405080F84350A0F8445080F8465080F88E
S3150FE130004230C0F888801822FF21683000F010FBAB
S3150FE13010C4E91276C4F88080C4F8848084F89050AD
S3150FE1302016B1304600F050F80020BDE8F08149BAFC
S3150FE1303089B24840C0F30313584003B283EA003321
S3150FE13040580100F4FF509BB25840704738B504461B
S3150FE1305045181046AC4200D138BD014614F8010BB4
S3150FE13060FFF7E5FFF6E7F8B5044616461D460F46A8
S3150FE1307000F0DCF9DDE90612204600F0DBF900236A
S3150FE13080636284F838703368C4F839307368C4F80A
S3150FE130903D30B368C4F841302B0C6DBA84F8453036
S3150FE130A0A4F84650F8BD30B585B00D46194600F186
S3150FE130B02803CDE90152009300F1240200F1380310
S3150FE130C000F0D6F905B030BD10B5044600F02CF886
S3150FE130D020460021BDE8104000F02AB800F02DB8D7
S3150FE130E0014600F037B803685BB903461C2053F875
S3150FE130F0042F0AB90438FAD10028CCBF00200120E9
S3150FE1310070470020704738B5202204460D4600214E
S3150FE1311000F08EFA05F12003601E13F8012D00F879
S3150FE13120012FAB42F9D138BD6822002100F080BAF8
S3150FE131300023C0E900331846704707B500F12803AD
S3150FE131400190009300F108030020FFF7EFFA03B0B7
S3150FE131505DF804FB02460B4600F128010830FFF744
S3150FE13160F9BAEFF3108072B6704700B962B67047DD
S3150FE1317084B00B6800934B6801938B680293CB681D
S3150FE131800393009B0360019B0360029B0360039B18
S3150FE1319003600023009301930293039304B07047F6
S3150FE131A030B5D1E90223D1E900540560046002602C
S3150FE131B0036030BD30B50568046802680368C1E98C
S3150FE131C00054C1E9022330BD7FB58B07044611D008
S3150FE131D00B466D4601F11006186859682A4603C277
S3150FE131E00833B3421546F7D169462046FFF7D8FFB4
S3150FE131F004B070BD0091009904B0BDE87040FFF7CF
S3150FE13200CFBF30B58B0785B00C4610D06946FFF7B7
S3150FE13210D1FF0D46234604AC2A4603CAA2421860E3
S3150FE132205960154603F10803F6D105B030BD00919B
S3150FE13230009905B0BDE83040FFF7BCBF10B5FFF709
S3150FE13240AFFFBDE810401031FFF7AABF10B5FFF78A
S3150FE13250B1FFBDE810401031FFF7ACBF10B5FFF776
S3150FE132609FFF0C461031FFF79BFF04F12001FFF79B
S3150FE1327097FF04F13001BDE81040FFF791BF00F170
S3150FE13280424303F58013102A10B54FEA43130AD1CF
S3150FE1329001221A6000F58870FFF76AFF1031BDE869
S3150FE132A01040FFF765BF00221A602430F7E7F0B54B
S3150FE132B00B46990789B00546144629D0082A6E466A
S3150FE132C018D103F1100718685968324603C208335B
S3150FE132D0BB421646F7D1224669462846FFF7CFFF8E
S3150FE132E0082C0CBF042208226B460021013A0CD2AE
S3150FE132F009B0F0BD03F1200718685968324603C2D9
S3150FE133000833BB421646F7D1E5E743F8041BEDE771
S3150FE133100093009909B0BDE8F040FFF7B0BF4368ED
S3150FE1332023F01F030E290BD8DFE801F00808080880
S3150FE13330080B0B0B080808080B0B0B001943416030
S3150FE133407047194341F01001F9E770B505460E468E
S3150FE133501446FFF706FF296881EA040202EA06042A
S3150FE133604C402C60BDE87040FFF7FFBE2DE9F74FEB
S3150FE133700A780AB9022343604C78002C4C7A4FF055
S3150FE133800003436214BF4FF0400E4FF0000E002CC6
S3150FE133908C7ACB7891F802B091F808A091F8069063
S3150FE133A091F8078014BF4FF0800C4FF0000C002C02
S3150FE133B0CC7A4FEA034314BF2027002743EA0B6376
S3150FE133C0002C4C7B43EA0A0A14BF102600264AEA70
S3150FE133D08929002C0C7B49EA082814BF4FF4804554
S3150FE133E0002548EA0E0E002C14BF082400244EEAED
S3150FE133F00C0C01944CEA07070C79019B49793E4382
S3150FE13400002C45EA060514BF4FF4005400241D4372
S3150FE13410002914BF4FF0805100212C432143016055
S3150FE134200AB10123436003B0BDE8F08F24220021E6
S3150FE1343000F0FEB870B515460E462422002104466B
S3150FE1344000F0F6F8C02D0DD0B5F5807F01D0802DB7
S3150FE134500BD12046EA0840F8045B314600F0DAF872
S3150FE13460002070BD6FF07100FBE76FF01F00F8E70A
S3150FE134702DE9F04F2DED028B85B008EE903A0190D4
S3150FE134808B46164652B11568019B1B68802B03D0FC
S3150FE13490B3F5807F40F0A98000270DE01546F3E7ED
S3150FE134A0B5B1119B109ADB5D525D5340129A01350E
S3150FE134B0D35505F00F0501375F45F1D3002E00F027
S3150FE134C097803560002005B0BDEC028BBDE8F08F2B
S3150FE134D0FFF788FB4FF44043456003600446FFF76F
S3150FE134E040FE019951F8043B802B0CBF08221022B4
S3150FE134F080462046FFF7DBFE04F18403184618EEFB
S3150FE13500901A08EE103AFFF75FFE4046FFF72DFEE1
S3150FE13510119BABEB070803EB0709129B28F00F088A
S3150FE1352003EB070A09EB080291451DD1119BB8443C
S3150FE1353003EB0809129B9844119B052203EB0B0A37
S3150FE135400323D14531D1FFF70CFE18EE901A07464A
S3150FE1355018EE100AFFF755FE3846FFF706FE20462E
S3150FE13560FFF74AFB5F46A7E74823A3600523A3605E
S3150FE1357023699907FCD40323A3600392FFF7F1FDB7
S3150FE135804946029004F1A000FFF71EFE514604F1F1
S3150FE135908000FFF736FE029B1846FFF7E6FD09F1BD
S3150FE135A01009039A0AF1100ABEE79DB94821A160F5
S3150FE135B0A26021698A07FCD4A360FFF7D2FD1099B7
S3150FE135C0074604F18000FFF71CFE3846FFF7CDFDF5
S3150FE135D005220323109819F8011B405D013541407F
S3150FE135E008F8011B05F00F05ABE76FF020006AE75E
S3150FE135F0304668E710B501390244904201D1002007
S3150FE1360005E0037811F8014FA34201D0181B10BD55
S3150FE136100130F2E70A44914200F1FF3300D17047DE
S3150FE1362010B511F8014B03F8014F9142F9D110BDD5
S3150FE1363002440346934200D1704703F8011BF9E7B1
S3150FE13640F8B500BFF8BC08BC9E467047F8B500BF99
S3150FE13650F8BC08BC9E467047000000004D0EE10F16
S3150FE1366000000000750EE10F0D0A4765636B6F20D1
S3150FE13670426F6F746C6F616465722076582E59597B
S3150FE136802E5A5A0D0A312E2075706C6F61642067C0
S3150FE13690626C0D0A322E2072756E0D0A332E20657D
S3150FE136A0626C20696E666F0D0A424C203E20000265
S3150FE136B005000D0A4661696C656420746F20626FBF
S3150FE136C06F740D0A000D0A66696C65206572726F7B
S3150FE136D072203078000D0A53657269616C2075703E
S3150FE136E06C6F61642061626F727465640D0A000D1F
S3150FE136F00A53657269616C2075706C6F6164206342
S3150FE137006F6D706C6574650D0A000D0A6265676908
S3150FE137106E2075706C6F61640D0A000D0A626C6F35
S3150FE13720636B206572726F7220307800B814B6F150
S3150FE13730E0CFF3ADB7DD25C9FA79B7130000000085
S3150FE1374007B0CD5E0200000000000302D031000099
S3150FE137500000000000000800F0001000C92CE10F86
S3150FE13760CD2CE10F210FE10FED2CE10F1D2DE10F17
S3150FE1377000000000572DE10FCD2DE10F00000000F5
S3150FE1378000000000C32CE10F13B779FAC925DDB7A5
S3150FE13790ADF3CFE0F1B614B801020000000000006E
S3150FE137A0CC310000400000000000030200000000E1
S3150FE137B00000000000000000000000000000000013
S3150FE137C00000000000000000000000000000000003
S3150FE137D000000000000000000400000700000D10CB
S3150FE137E013001A202630384048000000EB17A603D5
S3150FE137F00201000003000000FA0606FA0D040000BC
S3150FE1380003000000F40A0AF40505000001000000B8
S3150FE13810F50909F50307000001000000F60808F6AF
S3150FE138200608000000000000FE0101FE0808000086
S3150FE1383000000000FD0303FD0A0800000000000080
S3150FE13840F90707F90E09000002000000F70A0AF767
S3150FE138500F0B000003000000FC0404FC0B0C00003E
S3150FE13860030000002000000000010000050C00002D
S3150FE13870FFFFFFFFFFFFFFFFFFFFFFFF000000005E
S3150FE13880000000000000000001000000FFFFFFFF45
S3150FE13890512563FCC2CAB9F3849E17A7ADFAE6BCFC
S3150FE138A0FFFFFFFFFFFFFFFF00000000FFFFFFFF2E
S3150FE138B096C298D84539A1F4A033EB2D817D0377D4
S3150FE138C0F240A463E5E6BCF847422CE1F2D1176B6F
S3150FE138D0F551BF376840B6CBCE5E316B5733CE2B42
S3150FE138E0169E0F7C4AEBE78E9B7F1AFEE242E34F71
S3150FE138F06A09E667BB67AE853C6EF372A54FF53A8B
S3150FE13900510E527F9B05688C1F83D9AB5BE0CD19B6
S3150FE139108000000000000000000000000000000031
S3150FE1392000000000000000000000000000000000A1
S3150FE139300000000000000000000000000000000091
S3150FE139400000000000000000000000000000000081
S3150FE1395000000F400000000000040F4001000000CE
S3110FE139606C39E10F081000201800000080
S3150FE1396CF00F100300000000B91000201300000047
S3150FE1397C0900000000010000020200001300000024
S3150FE1398CF00F100300000000B91100201300000026
S3150FE1399C090000000002000001010000D3FFFFFF48
S3150FE139ACF07F1030B912002000000000000000007B
S3150FE139BC00000140003204002109E10FFD08E10F7F
S7050FE12C2FAF
