S023000072657833702D756172742D786D6F64656D2D626F6F746C6F616465722E733337E7
S11300000810002039010000BD1F00000721000076
S1130010BD1F0000BD1F0000BD1F0000BD1F00006C
S1130020BD1F0000BD1F0000CC280000BD1F000044
S1130030BD1F00007C280000BD1F0000BD1F000084
S1130040BD1F0000BD1F0000BD1F0000BD1F00003C
S1130050BD1F0000BD1F0000BD1F0000BD1F00002C
S1130060BD1F0000BD1F0000BD1F0000BD1F00001C
S1130070BD1F0000BD1F0000BD1F0000BD1F00000C
S1130080BD1F0000BD1F0000BD1F0000BD1F0000FC
S1130090BD1F0000BD1F0000BD1F0000BD1F0000EC
S11300A0BD1F0000BD1F0000BD1F0000BD1F0000DC
S11300B0BD1F0000BD1F0000BD1F0000BD1F0000CC
S11300C0BD1F0000BD1F0000BD1F0000BD1F0000BC
S11300D0BD1F0000BD1F0000BD1F0000BD1F0000AC
S11300E0BD1F0000BD1F0000BD1F0000BD1F00009C
S11300F0BD1F0000BD1F0000BD1F0000BD1F00008C
S1130100BD1F0000BD1F0000BD1F0000BD1F00007B
S1130110BD1F0000BD1F0000BD1F0000BD1F00006B
S1130120BD1F0000BD1F0000BD1F0000BD1F00005B
S1070130BD1F0000EB
S113013808B50B4B83F30A880A4B07A1D1E90001E0
S1130148C3E9000100F07EF800F096FC00F054F8D2
S113015800F066F800F022FCA5EDF5FEA5EDF5FE2D
S113016808000020081000200348044B834202D0F2
S1130178034B03B1184770471813002018130020C5
S113018800000000064B0749C91A891048BF01310D
S1130198491003D0044B0BB101481847704700BFFE
S11301A818130020181300200000000010B5064C96
S11301B8237843B9FFF7D8FF044B13B10448AFF3CE
S11301C800800123237010BD3210002000000000BD
S11301D8182A000008B5054B1BB105490548AFF3BB
S11301E80080BDE80840FFF7CDBF00BF0000000055
S11301F810100020182A0000064B0748DA1C121AAF
S1130208C11E22F00302994288BF0022034902F06A
S113021814BA00BF18130020B8120020242A0000C2
S1130228064B0748DA1C121AC11E22F0030299422F
S113023888BF0022002102F0F8B900BFB8120020DC
S113024810100020044B054A9A60D3F8882042F421
S11302587002C3F88820704700ED00E00000000039
S11302680023024A1370024A1370704734100020A6
S11302783310002038B503780446042B0D463FD0CC
S113028809D8012B0BD0032B4FF018033CD040F6B0
S113029803102B7038BD182B36D0432BF4E7224BB0
S11302A84278197801BB012A03D0152340F60410BB
S11302B8EFE71A70A3781344FF2BF6D100228021AC
S11302C8E01C02F0B7F894F88320C0F30F239A4295
S11302D821D194F88430C0B2834220D1134B627880
S11302E800201A700623D4E7104B1B7893420ED0D3
S11302F80133DBB29342DDD0152340F60510C8E77D
S1130308062340F60710C4E740F60810C1E70623A1
S113031840F60610BDE7152340F60210B9E7152389
S113032840F60110B5E700BF331000203410002058
S113033810B590B02C22002105A802F076F9054BDF
S113034801AC0FCB84E80F00214605A800F03AF869
S113035810B010BD9827000010B592B04722184974
S1130368684602F06AF901F0A5FE0A22C0F30363A5
S1130378092B8CBF373330338DF81430C0F3034363
S1130388B3FBF2F102FB113300F00F0030338DF8A8
S11303981730B0FBF2F302FB130001F130043030E4
S11303A803F130018DF819108DF81A000122472144
S11303B868468DF8164000F005FD002012B010BD07
S11303C8A82700002DE9F04F0024ADF5257D4FF452
S11303D89472054688465AA821468DF80B4002F0C7
S11303E824F92146682204A802F01FF9214668224C
S11303F81EA802F01AF93C2700F0D6FB01264FF09C
S1130408FF34DFF81C93DFF81CA3DFF81CB3731E5A
S1130418052B09D8DFE813F00C001E0041005B002F
S11304285001C0000426F2E7FFF796FF0126EEE725
S11304384FF47A7103A801F0F2FE38B99DF80C3034
S1130448312B05D0322B0CBF052600263C27DEE7CE
S11304580226FBE701221121AE4800F0B3FC2C224E
S11304680021284602F0E1F820231EAA04A95AA86C
S113047800F038FE0026FF23012105206B706E80F2
S113048800F0B4FB00F0EAFC18B10121304600F09A
S11304985BFDFFF7E5FE0326B9E7432001F090FD75
S11304A800214FF47A7000F0A1FB00F0D7FC18B9D2
S11304B800F0C2FB0028F8D000F0D0FC0028B1D12D
S11304C8013FA4D1182001F07BFD00269FE70021FD
S11304D885220DF1E10002F0A8F8002140F6B830B9
S11304E800F084FB00F0BAFC88B34FF47A730093ED
S11304F8012303AA19460DF1E10000F0D3FC9DF88D
S1130508E130012B0DD140F6B832842100920DF16F
S1130518E20003AA00F0C6FC039B0446842B1AD10C
S1130528D8B90DF10B010DF1E100FFF7A3FE40F678
S11305380713984204461AD1AB78A3B1EB7893B168
S113054806269DF80B00182808BF062608E000F0C8
S113055873FB0028C6D040F2047415208DF80B00F4
S113056801F02EFD53E718238DF80B30E8E7002837
S1130578E7D19DF8E130012BE3D180232946CDF85A
S1130588008039AA5AA800F0E7FD04460028D8D00C
S113059818238DF80B30D4E70121002000F0D4FC97
S11305A801210A2000F022FB9DF80B300122062BC2
S11305B80BBF1B211A215046584600F003FC9DF836
S11305C80B30062B81D0A4F51063B3F5E06F4FF020
S11305D8010213D21121504800F0F4FB40F606132F
S11305E89C4213DCB4F5106F10D0A4F60213042B4C
S11305F84ED8DFE803F04F474B51530010214748CA
S113060800F0E0FB40F606139C421ADC9DF80B3020
S11306189F2B4FEA13108CBF3730303000F00AFCA0
S11306289DF80B0000F00F0009288CBF37303030DC
S113063800F000FC0D2000F0FDFB0A2000F0FAFB9E
S113064843E7A4F58053013B092BDFD8A4F5805375
S1130658013B092BDAD801A252F823F0B9060000AD
S11306681506000015060000BD060000AD060000D2
S1130678B5060000B9060000B1060000A90600008E
S1130688B906000021238DF80B30BFE72223FAE7CF
S11306982323F8E72423F6E72523F4E72723F2E7BF
S11306A84123F0E74323EEE74423ECE74523EAE755
S11306B84F23E8E75023E6E7AB782BB3EB781BB37B
S11306C82B785A0708D5A86A01F0F8FC20B14FF432
S11306D8004000F003F9F8E62B789B070AD56E680A
S11306E801F0E8FC864205D9696A4FF4004000F03D
S11306F8B1F8EAE640F2012000F02CFA01221321B5
S1130708484600F05FFBE0E640F2032000F022FADE
S1130718DBE600BF58280000122800000228000069
S1130728EF2700003D28000023280000F0B5421EF2
S1130738D11C034685B018D86E460D4C04F1100739
S1130748354620686168083403C5BC422E46F7D193
S113075804A90F3311F8014D12F8010F844204D192
S11307689A42F7D1012005B0F0BD0020FBE700BF95
S113077869280000F0B50368044603F16043B3F543
S1130788803F4FF000069FB030D8B26A43681769BB
S11307989F422BD8B3F5402F28D8456B07F1400367
S11307A8AB4253D8B5F5402F50D82846FFF7BEFFC3
S11307B800284BD0284601F063FC80B16B6973B103
S11307C8022B0ED1AB69C4F1040119444FF0FF3276
S11307D8204600F0DBFF1E4BC31A584258411FB095
S11307E8F0BD766B3046FFF7A1FF08B90020F6E7A5
S11307F8A7F150039E42F9D8284603A901F047FC03
S11308080028F3D0039DAF42F0D8AC42EED8B5F53A
S1130818402FEBD804A801F050FE21462A1B04A857
S113082801F055FE04A801F054FE01F03DF8044619
S113083801F052F823460090294605F1200204A845
S113084800F0B8FFB0FA80F04009C8E70120C6E715
S1130858E320BBDE70B54FF0FF3292B005460C467C
S113086800F094FF1A4B98422ED12022002101A8AF
S113087801F0DBFE174B29466846043C009301F05F
S113088840FF2146684601F03CFF684601F042FFFC
S113089801F0E0FE0646B8B940F2022000F04EF935
S11308A8202231460AA801F0C0FE0B4B294609A8AC
S11308B8099301F026FF09A8214601F022FF09A89F
S11308C801F028FF01F0C6FE002012B070BD00BF81
S11308D8E320BBDE010005430100064330B50446AE
S11308E893B02022002101A801F09FFE114B21465C
S11308F86846009301F005FF684601F00BFF01F01C
S1130908A9FE054698B940F2022000F017F9202202
S113091829460AA801F089FE074B09A8214609932C
S113092801F0EFFE09A801F0F5FE01F093FE0020A6
S113093813B030BD000002430000034310B58CB06F
S113094820220446002104A801F06FFE0A4B0094FB
S1130958039301230193094B694603A8029301F009
S1130968F6FE03A801F0D6FE01F074FEB0FA80F09A
S113097840090CB010BD00BF00000843040000206B
S113098840B139B100230B60034B03600B6843F497
S113099800530B60704700BF1424004013B501A82E
S11309A801F0AAF99DF80530012B27D12B4A936D44
S11309B8DB0313D4536B23F4FF0323F4FE4343F400
S11309C8BC1343F4A0635363136B23F4704343F4DD
S11309D840431363136B43F4E06313639DF80430DB
S11309E863B94FF000531B681D4B1B681D4B1B68F4
S11309F81D4B1B681D4B1B681D4B1B681D4AD2F8F9
S1130A08803043F00303C2F8803001F06AFB00F041
S1130A187FF801F0D0FA01F0D0FA18B14FF4017060
S1130A2800F098F8FFF784FC044601F0C8FA1CB1FA
S1130A3840F203739C4206D140F2012000F08AF888
S1130A484FF4017005E0A4F20574012CF8D840F2C3
S1130A58032000F07FF8002002B010BD00C0004061
S1130A68004000200080002000C000200000012079
S1130A780040012000800040012307B58DF80630AE
S1130A888DF807304FF04023D3F894305A060AD52E
S1130A9800F074F8A0F2022080B2072803D8C92312
S1130AA8C340DB0702D400F0B1FA20B100238DF86B
S1130AB806308DF807304FF480435B68013308D162
S1130AC84FF4027000F03AF800238DF806308DF8E0
S1130AD807309DF8073063B14FF48040FFF74AFEB2
S1130AE88DF806009DF806301BB94FF4027000F02B
S1130AF825F89DF806302BB14FF48040034B9860DD
S1130B0801F0F3FA03B05DF804FB00BF00ED00E068
S1130B184CF23C32014B5A80704700BF0000002061
S1130B284AF6C030044B5B8823F00F039BB21B1AB0
S1130B3858425841704700BF00000020044A08B5D5
S1130B481080FFF7EDFF10B94FF20F03538008BD73
S1130B580000002008B5FFF7F1FFBFF34F8F0549E8
S1130B68054BCA6802F4E0621343CB60BFF34F8FAE
S1130B7800BFFDE700ED00E00400FA054FF20F01A5
S1130B88084B5A888A4201D1188870473AB91B8899
S1130B9840F20220012B18BF4FF4007070474FF445
S1130BA800707047000000201FB500F0EBF94FF407
S1130BB87A23B0FBF3F00B4B0F22186000210DF1E0
S1130BC8010001F032FD01238DF8003040F2FF33BB
S1130BD869460548ADF8023001F0B1FC05B05DF88E
S1130BE804FB00BF281000200080044030B50D4DE0
S1130BF80D4A2D68536A15FB00F515FA83F09CB26B
S1130C0880B2A0422CBF00240124084B1880084B52
S1130C181C7011B1536A8342FCD1012305494B610D
S1130C28936130BD2810002000800440301000205B
S1130C383510002000A00440094B0A4A586912786C
S1130C4800F001000AB108B9704738B9586A064B70
S1130C581B88984234BF0020012070470120704748
S1130C680080044035100020301000202DE9F041A8
S1130C780126DFF820813F4BD8F800203E4F02F1CF
S1130C883C01996002F124037B627B6002F5805386
S1130C985E6040F6AA630024536141F20503374DB0
S1130CA8374802F500519460D465D3601461D46167
S1130CB8D4648864C5F8AC45C5F8C445C5F8BC45D2
S1130CC8C5F8B445C5F8B845D3609368936000F097
S1130CD859F92C4B06211B6FC3F380233344B0FB13
S1130CE8F3F24FF4E10302F5E1325201B2FBF3F2FD
S1130CF8254B203A03EAC203D8F800202046D361E2
S1130D083346042200F0FEFE3346324605212046CF
S1130D1800F0F8FE1423C5F8AC354FF4C023C5F829
S1130D28C4354FF4A0230522C5F8BC35D8F80030E3
S1130D384FF480215A614FF0F053144A566093607F
S1130D48134B546294631464546519600231146635
S1130D58D465176759600321A3F50053C2F890407E
S1130D68C2F88C4059630223966402F580521361D9
S1130D78BDE8F081F8120020B812002000C003403A
S1130D88FFFF010000800040F8FF7F0000000440DE
S1130D980040044008130020084B586B10F0020070
S1130DA806D002229A6203F5005301205A63704761
S1130DB8DB6A9B07FBD40222014BF6E700000440E0
S1130DC80020044070B54E1E7E2E0446154622D8D7
S1130DD8FFF7E2FF10B32046124B214410F8012B11
S1130DE8884203F8012BF9D10F4B1A8866F30E12C7
S1130DF81A800E4AC2F8A030022393640DB9002069
S1130E0870BDFFF7C9FF0028FBD0094B1A68936926
S1130E189B06FCD5F3E741F20310F1E741F2062003
S1130E28EEE700BF36100020F8120020000004404E
S1130E3808130020014608B5FFF7AEFF0028FBD0D1
S1130E48054B1B689A695006FCD5D9639A699206C2
S1130E58FCD5002008BD00BF081300200E4A0F4B24
S1130E68106840F20112DB6E934205D190B1002361
S1130E78C0F500701844704740F2022293420EBF36
S1130E884FF48073064A9B1A984202D0F0D2181A7B
S1130E9870470020704700BF2C1000200000044059
S1130EA8B61000202DE9F843089D04460E4617465F
S1130EB8F3B9FFF7D3FFB04228BF304600214FF003
S1130EC801084FF002091D4A054604EB000C13689B
S1130ED8DFF870E01A4864451CD101B1136007B10A
S1130EE83D6041F20420AE4298BF0020BDE8F8837B
S1130EF82DB1FFF759FE00212846FFF777FEFFF7CB
S1130F08ADFFB042D5D2002DF9D0FFF795FE0028E9
S1130F18F5D0CEE71EF803100133B3F5007F04F8CB
S1130F28011B04D10023C0F810900121D3E7B3F5C5
S1130F38807F08BFC0F81080F7E700BF2C1000209E
S1130F4800100440B610002010B10222094B9A6226
S1130F5871B101220020074B07499A624A63074985
S1130F681967074908609A64022203F580531A61D5
S1130F78002070470000044000200440B8120020FC
S1130F882C10002030B51A4B87B001AA03F11005C4
S1130F98144618685968083303C4AB422246F7D18B
S1130FA81B782370134B1B6F03F00703032B1BD011
S1130FB8114A9368C3F30443102B17D818336B44AE
S1130FC80E4913F8143C4B430D498B4203D19268E4
S1130FD8C2F30162D340074A106FC0F301300130F5
S1130FE8B3FBF0F007B030BD064BF4E7064BF2E76D
S1130FF814290000008000400000014040420F0016
S113100800093D0000F04902C0EA210110B501239E
S113101804220221002000F075FD0222012311465A
S1131028002000F06FFD0022054B10465C69022188
S1131038012300F067FD6FEA940000F0010010BD81
S113104800C0034030B5024600230C25054905FBC2
S113105803F460180C59944203D001330C2BF6D1D5
S1131068002030BD28290000F0B50023082787B0E8
S1131078CDE9013315463B46009704AA044601F01E
S1131088F9F841F203039842064623D194F8433011
S113109853B13A46E06C04A901F019FA04AA3B4694
S11310A81146A06C01F0F8F9059A049B6A6094F85B
S11310B843202B6052B9094A934207D0084A934205
S11310C804D00822E06C04A901F001FA6B682365D6
S11310D800236365304607B0F0BD00BFF70A0AF77E
S11310E8FC0404FC2DE9F04100254FF0FF370446C9
S11310F88846164603F0200380F842301822FF2160
S1131108C0E91855A0F8405080F84350A0F844505E
S113111880F84650C0F88870683001F086FA882252
S11311282946C4E91286C4F88070C4F8847004F1AE
S1131138900001F07AFA074BC4F82071C4E94635E7
S113114884F8245116B1304601F0B7F90020BDE8FF
S1131158F08100BF000101012DE9F04F9BB09946D1
S1131168CDE90723002304460E464FF00108249DC9
S113117809930999B7E094F846300C2B00F2AF8034
S1131188062B7BD908FA03F212F4286F40F0DD81AC
S113119812F4885F40F09C810A2B40F0A480DFF8A9
S11311A80CB4636D072B00F24D814FF0080A382305
S11311B82046CDE90188CDF800A00CAA07A901F0C2
S11311C859F841F20303984240F0A680337843F07B
S11311D8040333700D9BB36273785F071CD500203A
S11311E8236DCDF828B0C4F8843094F8453060668F
S11311F843F0020384F84530EF686FB104222B688A
S11312080AA9B847606E2B685246EF680CA9504487
S1131218B847636E103363660B2384F84630C0E71F
S1131228A3F10E02052A00F23C82DFE812F0AA02BA
S11312380600F400EC01EC01A8020027636D0F2BF3
S113124800F29980102320460093CDE901874023BA
S11312580AAA07A901F00EF841F2030398425BD1E8
S1131268D4F848A000F050FB80230221CDE9000304
S11312780BAA0123504601F0EAF8DFE7013B052BEE
S113128836D8DFE813F07A00740006006201D20051
S11312982D010127636D072B00F2D4800823204613
S11312A80093CDE9017740230AAA07A900F0E2FFD9
S11312B841F2030398422FD133780B9A43F0020387
S11312C833700A9B7360236D083B7362002A00F035
S11312D8E080132384F8463041F201001CE0A3F1B6
S11312E80D02062A9CD94945FFF445AF002064E065
S11312F820460AAA07A9FFF7B7FE41F2030398425A
S11313080AD10B9B0A9A236500236365A54B9A426D
S1131318DFD1022384F8463041F203030590059A8D
S11313289A423FF426AF47E0082320460093CDE9CC
S1131338018740230AAA07A900F09CFF41F203038E
S11313489842E9D10A9B03F07F43B3F1407F05D06B
S1131358132341F2090084F84630DDE70B9BD807D4
S113136806D594F8423043F0010384F8423000274C
S1131378636D072BD8D90123AFE020460AAA07A931
S1131388FFF772FE41F203039842074609D10A980F
S1131398FFF758FE024698B9132341F2080784F868
S11313A8463041F203030597059A9A423FF4E1AEA9
S11313B8059B0BB10023F37005981BB0BDE8F08FB3
S11313C8437994F82411994205D9132341F20E075D
S11313D884F84630E5E701687348814205D01189ED
S11313E8C90748BF013384F8243194F84230D80738
S11313F80DD5118994F84330890706D53BB11323D9
S113140841F2010784F84630CBE7002BF7D0137973
S113141884F84630C5E7226D0123A265002284F8CA
S11314284330E26584F84630A3E600213C220BA849
S11314380A91012701F0F9F8D4E91432934204D847
S113144884F8467041F2030066E70093204640237F
S1131458CDE901770AAA07A900F00CFF41F20303BA
S113146898427FF459AF0DF1280C06F108030DF1E9
S1131478400E624603CA724518605960944603F1E7
S11314880803F6D110681860337843F00103337009
S1131498D2E7042384F8463094F84530626643F072
S11314A8010384F84530F5E6042320460093CDE98A
S11314B8017740230AAA07A900F0DCFE41F20303DE
S11314C898427FF429AF226D0A9B042A01D9236626
S11314D80127636D032BE7D9092384F84630B1E764
S11314E80023636607239DE79F423ED89F4228BF97
S11314F81F4640232046CDE9018800970AAA07A978
S113150800F0B8FE41F2030398427FF405AF94F863
S113151846B0BBF1070F37D0042FC7F1040A88BFC0
S11315284FF0000A0AAB5246FF21D81901F07DF8A2
S1131538BBF1090FBA443BD12B46524620460AA9AF
S113154800F019FF00287FF4E7AED4E914739F4232
S11315587FF611AFFF1ADDE908329B1A94F8402090
S1131568032F1344C0D9032B05D8204607A900F03C
S113157860FE0020D0E6402F28BF40279F4228BFA6
S11315881F4627F00307B4E7D5F808A0BAF1000FFF
S1131598C2D02B683A46606E0AA9D047636E3B44B2
S11315A86366D2E7EB17A603F90707F9EB17A65EFC
S11315B8BBF1040F1DD173789807C6D5EB68002BCF
S11315C8C3D0626E042A0BD80AEB0203062B07D990
S11315D80BAB9B1A1A68C4F884204FF0FF321A60C8
S11315E8EF682B685246606E0AA9B847636E534485
S11315F8D6E7BBF10B0FA8D173785907A5D5EF68C7
S1131608002FEED1A1E700218A6A496B1269503A8A
S113161891423FF661AE112B0AD194F81831002B90
S11316287FF4A9AE132341F2060084F8463073E62A
S113163894F84430002B7FF49EAECDE90133402367
S1131648204600930AAA07A900F014FE41F20303F6
S113165898427FF461AEE06C00F03BFF94F81831D7
S11316686BB104F1B4030093E06C04F1940312AA7F
S11316780AA900F09FF878B10023F370D2E7D4F8F0
S11316884CA000F011F9074600F026F93B460090FB
S113169812AA50460AA9ECE70123F37084F84430EF
S11316A869E600234FF00408CDE9013320464023BE
S11316B8CDF800800AAA07A900F0DCFD41F2030373
S11316C8984209D1D4F888202F4B9A4206D0132384
S11316D841F2050084F8463005906DE60123F37065
S11316E894F84530DA0707D5EF682FB142464046EB
S11316F82B6804F18401B84794F845309B0707D553
S1131708EF682FB104222B68104604F18401B8470E
S1131718236E6BB36F685FB34FF0FF3304F1800837
S11317280422414606A8069300F06FFF28B104225C
S1131738414648F204002B68B84704F168090422BA
S1131748494606A800F061FF90B100239B6A142261
S1131758D3F8108004F16C0108F10800D5E90037CA
S1131768B847D5E900370422494608EB0200B847D0
S11317780123B3700E23002084F84630ACE700231D
S1131788F37041F2070018E6E320BBDE30B501240C
S11317980025074B01445C609D601A61DC60884247
S11317A801D1586A30BD10F8012B1A62F7E700BF5F
S11317B8008008402DE9F0439BB00E4615461C46B0
S11317C80746DDF88890002861D000295FD0002AF8
S11317D85DD0002B58D02F4B2F4AB9F1000F14BFFE
S11317E8984690462022002112A800F01EFF2B4B99
S11317F8414611A8119300F084FF202111A800F09C
S113180880FF0122264B029403920493CDF814908E
S11318180692079354B1B9F1000F07D002A911A891
S113182800F0CAFE05A911A800F0C6FE0897012712
S11318381B4C08A911A809970A9400F0BDFE0BA92E
S113184811A80B960C970D940E950F97109400F011
S1131858B3FE0EA911A800F0AFFE11A800F05AFFBC
S1131868104B01934FF098435A6CD202FCD55B6D30
S113187840F2046003F470230193019B002B08BF1A
S113188800201BB0BDE8F083DFF80C80AAE740F223
S11318980160F6E71F2400801F24FC840000010671
S11318A8200000207856341200B59BB0282200216D
S11318B8684600F0BAFE4023002168460AAA00F0F0
S11318C829FA20F010000128024818BF00201BB094
S11318D85DF804FB4CE30B0000B59BB02822002103
S11318E8684600F0A2FE4023002168460AAA00F0D8
S11318F811FA20F010000128024818BF00201BB07C
S11319085DF804FB6CE30B000048704786E20B00AB
S11319182DE9F3471446DDE90A920D461F460028CF
S11319284DD14CB313683F2B2AD8516851B325497C
S1131938002F14BFB846884603F03F061B191360EE
S113194822BF536801335360FEB93F2C0ED9A30953
S11319582A46009341463B46002000F083F824F0D1
S11319683F031D4404F03F0434B1002622462946AF
S113197809EB060000F061FE002002B0BDE8F08724
S1131988B846D9E7DFF83C80D6E7C6F1400A5445A3
S1131998ECD32946524609EB060000F04EFE01231B
S11319A8264400934A463B4641460020A6F140049B
S11319B800F058F83F2C5544D6D9B846C7E7024832
S11319C8DBE700BFF829000080AFFFFF2DE9F041F5
S11319D81746146886B01E46E3008DF80F30630975
S11319E88DF80E30630B8DF80D30630D8DF80C30C7
S11319F853680546DA0002EB54728DF80B2004F0A4
S1131A083F045A09372C8DF80A204FEA53324FEA1B
S1131A1853538DF80920884694BFC4F13802C4F1A1
S1131A287802CDE900178DF808300D4903460020E7
S1131A38FFF76EFF08222B460020CDE900870DEB47
S1131A480201FFF765FF284605F1200350F8042B2F
S1131A58984246F8042BF9D1002006B0BDE8F0817D
S1131A68B8290000F0B51746242293B00E46044660
S1131A7800210DEB02001D4600F0D7FD01204FF0B8
S1131A8800520097019002920396049005920695DD
S1131A9807900892002C2FD1189C194BA4012146B9
S1131AA809A8099300F02DFE029B03A91C43029484
S1131AB8059B09A843F020030593089B43F02003E2
S1131AC8089300F079FD694609A800F075FD06A998
S1131AD809A800F03CFE09A800F01CFE4FF098434A
S1131AE85A6CD202FCD55B6D13F4702F14BF6FF0DF
S1131AF86F00002013B0F0BD6FF07100FAE700BF6B
S1131B0800040103F8B504460D461F4616464AB1BB
S1131B1801238B403021184A01FB0022F7B141F21E
S1131B281001535004EB4403072D4FF00F014FEA03
S1131B38031316D8A80006FA00F281400F48184487
S1131B4800F0E7FC4EB9012330210B4AAB4001FBFE
S1131B58042277B141F210015350F8BD42F210014A
S1131B68DFE7A5F10800800006FA00F28140044886
S1131B78E5E742F21001EFE700C0034004C0034068
S1131B880CC00340F0B5114A114C124E00F0010587
S1131B98E3695F0713D40DB9334213D103EA00078D
S1131BA88F4207D10B4A1A40002A0CBF00206FF05D
S1131BB80100F0BD013AEBD16FF00200F9E74FF0F4
S1131BC8FF30F6E76FF00100F3E700BF8096980056
S1131BD8000003400200010038B541F671330122C8
S1131BE80C4C0021E569E3630B4B05F48035DA609E
S1131BF80223606121202361FFF7C4FF10B921206B
S1131C08FFF7C0FF0122054BDA600DB10023E3633F
S1131C1838BD00BF0000034000100340002003400B
S1131C282DE9F04F01244FF450262A4DDFF8B8C0AF
S1131C38DFF8B8E0CCF8044045F8206030250026E9
S1131C4805FB00E5EE652E662E6741F67136224FD8
S1131C58DFF89C90D7F81C80FE63204EDFF894A030
S1131C68F46004FA00F043B901211D4A18F4803FD6
S1131C78D16029D10020BDE8F08F01F5005404EAB1
S1131C880904641A9C4228BF1C467961D7F81CB021
S1131C98A6081BF0040F19D1013E360146F0605620
S1131CA86E66AA66C5F86CA0CCF82400DEF8346029
S1131CB83042FBD00B4E214470630426CCF8280034
S1131CC822443E611B1BCEE7FB63D3E74FF0FF3092
S1131CD8D1E700BF00400440000003400010034067
S1131CE80020034000200440001004400000044089
S1131CF800E0FFFF18000340054B5B69C3F385123E
S1131D08827003F03F021B0B42700370704700BFE0
S1131D1800C007401FB5044608B302B3402B1ED1C8
S1131D2893071CD1C1B1012919D14FF400710D4B8E
S1131D3801920B4323600023C4E901332362012386
S1131D480293094B204601A9039300F000FD2046A5
S1131D5800F0C4FC04B010BD4FF48071E7E7212003
S1131D68F8E700BF010008FF400000202DE9F0411A
S1131D78012905460E4690461F4692B04AD8046883
S1131D8824F04003802B02D0B4F5807F45D1202273
S1131D9800210AA800F049FC234A244B0121012E02
S1131DA808BF134609932B1D0093E408204B44F005
S1131DB80054019109A80294CDF80C80049105936C
S1131DC8069707916946089300F0F6FB03A909A84A
S1131DD800F0F2FB06A909A800F0B9FC296809A8D3
S1131DE8C90800F08EFC102109A800F08AFC00F054
S1131DF871FCA8B909A800F08DFC4FF098435A6CFF
S1131E08D202FCD55C6D00F067FC04F4702012B0BB
S1131E18BDE8F0816FF02000F9E76FF07100F6E794
S1131E284FF0FF30F3E700BF000100040001010494
S1131E38100000202DE9F04F0746894698461646BB
S1131E4899B082B115683B6823F04002802A03D018
S1131E58B3F5807F40F0A68000244C4505D306B135
S1131E68356000207BE01546EDE75DB1239B229A9F
S1131E781B5D525D01355340249A05F00F05135537
S1131E880134EAE7A9EB040ABAF10F0F0BD8239B34
S1131E9803EB040A249B1C44239B03EB090BDA453C
S1131EA860D14C46D9E72022294610A800F0BDFB92
S1131EB83E4B3A680F933B1D00930123D20842F02E
S1131EC80052019302923A4ACDF80C800493059289
S1131ED8CDF8188007930892239A249922442AF06B
S1131EE80F0A099221444AF000520A930FA80B9250
S1131EF80C9169460D930E9200F05EFB03A90FA89E
S1131F0800F05AFB09A90FA800F056FB0CA90FA86A
S1131F1800F01DFC06A90FA800F019FC39680FA8E9
S1131F28C90800F0EEFB51460FA800F0EAFB00F0E8
S1131F38D1FB90B90FA800F0EDFB4FF098435A6C11
S1131F48D202FCD5586D544400F4702B00F0C4FB45
S1131F58BBF1000F9BD0584601E04FF0FF3019B099
S1131F68BDE8F08F55B1229A1AF8013B525D01354C
S1131F78534004F8013B05F00F0590E74246012160
S1131F883846229BFFF7F2FE0028E8D108F1100238
S1131F9812F8013D0133DBB21370002BE3D19045F5
S1131FA8F6D1E0E76FF01F00D9E700BF0303000490
S1131FB810000020FEE700F012B8FEF7CDB9704714
S1131FC810B50446FEF736FF182C07D12046FEF755
S1131FD831FF2046BDE81040FEF72CBF10BDFEF7C8
S1131FE845BEC0F30C032DE9F04105460F461646DD
S1131FF80BB900F0F6F805F5005424F4FF5424F066
S11320081F0405EB0608A04507D83246394628467A
S1132018BDE8F041022300F0EBB8204600F0E1F8F7
S113202804F50054EFE770B40025AD6A03462E6941
S1132038864206D86C6913449C4202D370BCFFF7ED
S1132048D0BF70BC7047B0F5362F70B50D46144636
S113205815D2C0F53623934200F500460FD338B99C
S1132068836A5A69B2F5004F02D9186900F0B9F8C1
S1132078224629463046BDE87040FFF7B2BF70BD1E
S1132088036913F0FE0F0CBF01200020704738B518
S113209804460D46FEF74AFB38B16369012B07D1A4
S11320A82046FFF7EDFF10B1A46901202C6038BD6C
S11320B80020FCE700239B6A986870474FF0FF33C1
S11320C813B5044601A80193FEF738FC20B1019B1F
S11320D8A3422CBF0020012002B010BD4FF40040E1
S11320E8704700207047002070470346184601686F
S11320F881F3088881F3098840688746FEE74FF42E
S11321080170FEF727BDB1F50D7F10B504460FD356
S11321184FF40D72002100F088FA04F5DE7204F51C
S1132128AA7104F12C000023BDE81040FEF7DABFC1
S113213840F2052010BD13B50446009101462C3029
S1132148FFF70AF8C4F8300218B141F207039842BD
S113215804D1A37823B1E07800F2022002B010BDC4
S113216840F20120FAE72DE9F04387B00DF10809A0
S113217804460E4617460021102248461D46DDF83F
S1132188388000F052FA00211C22C8F800102846B2
S113219800F04BFA32463B462146CDF8009004F154
S11321A82C00FEF7D9FF23789A0744BF6268C8F861
S11321B80020DB0709D504F1080304F1240253F8CD
S11321C8041B934245F8041BF9D1237840F20640D6
S11321D8002B18BF002007B0BDE8F0834FF40D7042
S11321E8704708B5FFF7F8FCB0FA80F0400908BD5D
S11321F8072B10B5044618460FD862B142EA040307
S11322089B070AD113460A462146FFF709FDB0FA8F
S113221880F0400910BD0120FCE70020FAE7012303
S113222807B5002200911946FEF73CFE03B05DF89D
S113223804FB70B5D1E90152AA4205D290F84030A6
S11322482B449B1A402B10D9002012E00A6890F8FE
S11322584040D65C90F841200133224402F03F020A
S1132268013486548B6080F840408B689D42EDD8D9
S1132278012070BD2DE9F84390F840C017469E46EA
S1132288D1E90123089DD21A6244954204460E46B8
S11322989DF824909DF828800AD9FFF7CAFF0028E2
S11322A867D1132341F2020084F84630BDE8F8836D
S11322B8754555D8002394F840200AB19D4235D17C
S11322C8D6E90121914201D29D4241D89D424DD186
S11322D829463846D4F88820FFF758FAC4F8880005
S11322E8B9F1000F04D02A463946E06C00F0EFF843
S11322F894F84330B8F1000F06D08BB12B463A4618
S11323083946A06C00F0C8F894F8433043B1E36D43
S1132318A26D2B449342E36524BF002384F8433021
S1132328636D41F203002B446365BFE794F84120D1
S1132338A25CFA5494F841200133013202F03F02BE
S113234884F8412094F84020013A84F84020B2E708
S11323583268525CFA54B26801330132B260AFE7B2
S113236841F20100132384F846309FE741F202004A
S1132378F8E700209AE72DE9F04799465B68044698
S11323880F469046002B40D011F0030340D19B6ABE
S1132398006E1B6981181D1DA9421BD31C3398426A
S11323A818D2A842024638BF2A46994294BFC2EBC3
S11323B8010AC2EB030A101A3E18C5F1680010445A
S11323C831465246204400F038F95246FF2130463F
S11323D800F02BF948F20403226E9A420CD848F212
S11323E8070102EB0800884206D99B1AFA58C4F878
S11323F880204FF0FF32FA50D9E900354246394679
S1132408206EA847236E434423660020BDE8F08766
S113241841F20200FAE749BA89B24840C0F303120C
S1132428424013B283EA0233580100F4FF509BB2CE
S11324385840704738B5044645181046AC4200D198
S113244838BD014614F8010BFFF7E5FFF6E72DE95F
S1132458F04100F120080446404616461D460F4642
S113246800F0B4F8DDE90612404600F0B3F80023A2
S113247884F8587063643368C4F859307368C4F8CE
S11324885D30B368C4F861302B0C6DBA84F86530DC
S1132498A4F86650BDE8F0811FB50C46194600F152
S11324A84803CDE90142009300F1440200F15803C6
S11324B82030FFF7BFFC04B010BD10B5044600F08F
S11324C80BF82046BDE81040002100F009B800F0E0
S11324D80CB8014600F016B86822002100F0A5B82F
S11324E803460020C3E90000704707B500F128033C
S11324F80190009300F108030020FFF709FA03B0E4
S11325085DF804FB02460B4600F128010830FFF78A
S11325185DBA70B5054614460E4600F0A9F82B6856
S11325285C4034405C402C60BDE8704000F09BB8CF
S1132538036BDA0702D503695B06F9D4704710B553
S1132548FFF7F6FF0122044600F500531A630B79DE
S113255848881B0243EA8043887A0343487843EA5D
S11325688013C87A43EAC013087B43EA4013487BC4
S113257843EA0013887B43EAC003C87B43EAC023C9
S1132588887943EA0043C87943EA4043636004F521
S113259880531A630A780AB90223E360002363624A
S11325A84B79087A1B01497A43EA80030B43A360F9
S11325B80AB10123E36010BD436813B94160704751
S11325C85B685A68012AFBD15960704724220021AC
S11325D800F02BB870B515460E4624220021044697
S11325E800F023F825F04003802B02D0B5F5807F56
S11325F808D12046314640F8045BEA0800F01DF88B
S1132608002070BD6FF01F00FBE70139024410B5CC
S1132618904201D1002005E0037811F8014FA3424C
S113262801D0181B10BD0130F2E70244034693425F
S113263800D1704703F8011BF9E70A44431E91428D
S113264800D1704710B511F8014B914203F8014FBE
S1132658F9D110BD4FF098435A6CD202FCD5586D8D
S113266800F47020704710B962B6BFF36F8F7047DB
S1132678EFF3108072B67047B0F5802F22D010D8CF
S1132688B0F5003F20D007D818B3B0F5803F08BF95
S1132698482018BF01207047B0F5403F08BF2C20E0
S11326A8F7E7B0F5302F11D007D8B0F5E02F0FD0E9
S11326B8B0F5202F08BF1020EBE7B0F57F0F08BF57
S11326C80620E6E74B2070472A2070471120704700
S11326D821207047002070470020704708B570B16A
S11326E800F018F84FF098435A6CD202FCD5586D94
S11326F810F4702004D0BDE80840FFF7BDBF2120C6
S113270808BD036A042B9FBF00EB83020133D16029
S113271803627047036A052B14D84FF09842116C72
S1132728C902FCD504339B0013650168103B116092
S11327384168116050F8081F11604FF09842034433
S1132748984200D1704750F8041F1160F8E7836875
S113275813B9816070475B685A68012AFBD15960D4
S113276870470000000000000000000000000000A6
S11327780000000000000000F8B500BFF8BC08BC69
S11327889E467047F8B500BFF8BC08BC9E46704723
S1132798000000002F200000000000004F2000006F
S11327A80D0A4765636B6F20426F6F746C6F6164C9
S11327B865722076582E59592E5A5A0D0A312E20F0
S11327C875706C6F61642067626C0D0A322E20721A
S11327D8756E0D0A332E2065626C20696E666F0D66
S11327E80A424C203E20000D0A4661696C6564204B
S11327F8746F20626F6F740D0A000D0A66696C6548
S1132808206572726F72203078000D0A626C6F63F3
S11328186B206572726F72203078000D0A536572EE
S113282869616C2075706C6F61642061626F727489
S113283865640D0A000D0A53657269616C20757030
S11328486C6F616420636F6D706C6574650D0A004C
S11328580D0A626567696E2075706C6F61640D0A94
S113286800B814B6F1E0CFF3ADB7DD25C9FA79B7EE
S11328781300000013B779FAC925DDB7ADF3CFE02B
S1132888F1B614B80102000000000000842A000018
S113289840000000030001030000000000000000E5
S11328A8000000000000000000000000000000001C
S11328B8000000000000000000000000000000000C
S11328C80000000007B0CD5E020000000300010311
S11328D8882A00000040000000000C00F0041000EA
S11328E8EB200000EF2000007D0700000F2100000E
S11328F83F210000000000006F210000E5210000D6
S11329080000000089090000E52000000400000719
S113291800000D1013001A20263038405000000023
S1132928EB17A6030201000003000000FA0606FAEA
S11329380F04000003000000F40A0AF4050500006F
S113294801000000EB17A65E0A0600000100000063
S1132958F50909F50307000001000000F60808F668
S11329680608000000000000FE0101FE080800003F
S113297800000000FD0303FD0C0800000000000037
S1132988F90707F91009000002000000F30B0BF324
S1132998110A000003000000F70A0AF7120B0000EE
S11329A803000000FC0404FC0D0C000003000000FC
S11329B8800000000000000000000000000000008B
S11329C800000000000000000000000000000000FB
S11329D800000000000000000000000000000000EB
S11329E800000000000000000000000000000000DB
S11329F86A09E667BB67AE853C6EF372A54FF53A84
S1132A08510E527F9B05688C1F83D9AB5BE0CD19AF
S10F2A18242A0000B8120020180000005E
S1132A24F00F100300000000B61000201300000093
S1132A34090000000001000002020000130000006D
S1132A44F00F100300000000B61100201300000072
S1132A54090000000002000001010000D3FFFFFF91
S1132A64F07F103036100020000000000000000049
S1132A740080054021000000DD010000B5010000D4
S9030139C2
